:020000040800F2
:10000000980A0020010300083F030008410300088C
:1000100043030008450300084703000800000000F0
:10002000000000000000000000000000490300087C
:100030004B030008000000004D030008111B0008DE
:100040005103000851030008510300085103000840
:100050005103000851030008510300085103000830
:100060005103000851030008510300085103000820
:100070005103000851030008291500085103000826
:1000800051030008711500085103000851030008CE
:1000900051030008510300085103000851030008F0
:1000A00051030008510300085103000851030008E0
:1000B00051030008510300085103000851030008D0
:1000C00051030008510300085103000851030008C0
:1000D0005103000839200008D1200008510300080E
:1000E00051030008510300085103000851030008A0
:1000F0005103000851030008510300085103000890
:10010000510300085103000851030008510300087F
:10011000510300085103000851030008510300086F
:10012000510300085103000851030008510300085F
:10013000510300085103000851030008510300084F
:10014000510300085103000851030008510300083F
:10015000510300085103000851030008510300082F
:10016000510300085103000851030008510300081F
:10017000510300085103000851030008000000006B
:10018000510300085103000800F002F800F0A8F83D
:1001900014A696E8000CB244B344DA4501D100F04D
:1001A0009FF8BAE80F000FA696E83000A5EB04050B
:1001B00004EB0607AAEB0704A7F101074FEA1515A0
:1001C0004FEA3414A4F10104AC4201D300F088F8E2
:1001D00013F0010F18BFFB1A43F0010300F001F800
:1001E000DBE71847E02D0000002E0000103A24BF86
:1001F00078C878C1FAD8520724BF30C830C144BF8C
:1002000004680C6070470000704700000023002461
:1002100000250026103A28BF78C1FBD8520728BF16
:1002200030C148BF0B6070476E2900F0E98170292A
:1002300000F02F83662902F01886652902F01586E2
:10024000672902F01286612902F0118603681B0AF1
:1002500028BF41F08001692900F09681642900F0EF
:100260009381752900F090816F2900F0BD82782973
:1002700000F0FB82E92900F05782E42900F0548263
:10028000F52900F05182EF2900F0BA82F82900F038
:10029000FA820368DB0928BF41F08001632901F07D
:1002A0000480732901F00980E32901F01480F32907
:1002B00001F01980002070471FB502F0C9FD01F060
:1002C00067F804000020002102F0ACFD401C6060D3
:1002D0000020002102F090FDE0601FBD10B510BDB0
:1002E00001F029F81146FFF7E7FF02F0AFF801F03F
:1002F00005F903B4FFF7F2FF03BC01F00DF90000AC
:1003000017481849184B99423CBF50F8042B41F844
:10031000042BF8D3154B16494FF000028B4238BF1F
:1003200043F8042BFAD3DFF84C00016841F4700164
:100330000160BFF34F8FBFF36F8F0F480047FEE799
:10034000FEE7FEE7FEE7FEE7FEE7FEE7FEE7FEE785
:10035000FEE7000009480A490A4A0B4B70470000B3
:1003600010310008000000200800002008000020D4
:10037000980A002088ED00E0890100089804002018
:10038000980A002098060020980600200FB41CB59B
:10039000084B06AA7B4469460090059800F049F98D
:1003A00004460020694600F057F920461CBC5DF861
:1003B00014FB0000C102000040EA0103024630B510
:1003C0009B0710D14FF0013400E008C208C91D1B83
:1003D0009D4315EAC41FF8D013F0FF0102F8011B7A
:1003E0000DD01B0AF8E711F8013B002B02F8013B86
:1003F00005D011F8013B002B02F8013BF3D130BDD1
:1004000010B5431C02E010F8011B71B18107FAD14D
:100410004FF0013202C88C1A8C4314EAC211F9D091
:10042000C01A0A0603D0C01E10BDC01A10BD0A04AF
:1004300001D0801E10BD0902FCD0401E10BD00007E
:1004400030B44FF0013C50F8042B51F8043BCCFA87
:1004500052F4D51A20D1FCB950F8042B51F8043BC2
:10046000CCFA52F4D51A17D1B4B950F8042B51F87C
:10047000043BCCFA52F4D51A0ED16CB950F8042BC7
:1004800051F8043BCCFA52F4D51A05D1002CDAD03D
:1004900030BC4FF00000704729BAB1FA81F111F079
:1004A0001801D1F120008440F2D1CA40CB4012F0B3
:1004B000FF0213F0FF0330BCD01A7047704770473B
:1004C000704770B5044685690068C10601D53026BD
:1004D00000E02026C00707D070BDD4E901213046D6
:1004E0009047206A401C20626D1EF6D570BD70B525
:1004F000044685690078C00707D170BDD4E90121A1
:1005000020209047206A401C20626D1EF6D570BDE9
:1005100009684A0501D540B27047C905FCD500B24B
:10052000704709684A0501D5C0B27047C905FCD5B6
:1005300080B2704770B50C460546012A05D0287870
:10054000800600D5EA69002302E0012305E05B1C78
:10055000934202D2E05C0028F9D1A869E618C01ADB
:10056000A861286A184428622846FFF7AAFF04E019
:10057000D5E9012114F8010B9047B442F8D328467D
:10058000FFF7B5FF70BD00002DE9F04106460024DD
:1005900010687529314616A510D0FFF7B9FF00285D
:1005A00002DA404213A507E031688A0701D512A597
:1005B00002E0490704D511A5012401E0FFF7B1FFCE
:1005C00000210A2206F1240709E0B0FBF2FCB0FB8F
:1005D000F2F302FB1C00303078541846491C002806
:1005E000F3D123462A463046BDE8F04100F068BA10
:1005F000000000002D0000002B0000002000000083
:1006000011680268006A530501D508700AE0D30535
:1006100001D5088006E0130603D5C217C1E9000220
:1006200000E008600120704701694A1C02610878F7
:10063000704700B58FB0CDE9013100210591054922
:100640007944CDE903101146684600F02DF90FB04A
:1006500000BD0000E5FFFFFF0A6802F8010B0A6019
:10066000704700002DE9FF5F15468A460446DFF813
:10067000AC80F8440027D8E900103E46CDE90010D0
:1006800010E03AF816106A4602A800F030FE411C4D
:1006900007D02178890603D5E269391891420DD82F
:1006A0000744761C2078800602D5E069B84205DD53
:1006B000AE42E6DB3AF816000028E2D1A069C01B82
:1006C000A0612046FFF7FDFED8E90010CDE900103B
:1006D000002017E03AF818106A4602A800F007FE5A
:1006E000B0F1FF3F81460BD000250DF1080B05E06E
:1006F000D4E901211BF8050090476D1C4D45F7D347
:1007000008F10100B0428046E4DB206A38442062F0
:100710002046FFF7ECFE00F003B80000FE270000C3
:100720003FBCBDE8C09F00002DE9F0418046D21DCE
:1007300022F007020025D2E90002F52915A614D0FF
:10074000011E72F1000106DA0023D0EB030063EB17
:10075000020211A608E0D8F800108B0701D50FA6F9
:1007600002E0490701D50EA601251146002408F133
:10077000240704E000F05FF930323A55641C50EA77
:100780000102F7D12B46324621464046BDE8F041F2
:1007900000F096B9000000002D0000002B000000C2
:1007A0002000000030B4002100F1240408E002F031
:1007B0000705D208303542EA4372DB086554491C0C
:1007C00052EA0305F3D10468002310A2250708D5D7
:1007D00004F020040C4304D0C46901230CA2641E5D
:1007E000C46130BC00F06CB910B5044621461068F5
:1007F000FFF797FE02462046BDE810400023D1E7F0
:10080000D21D22F00701D1E90023CBE70000000050
:1008100030000000F0B40D460188090502D5214CD6
:100820007C4402E01F4C7C440E34002100F124067D
:1008300008E002F00F071209E75D42EA03721B09A4
:100840007754491C52EA0307F3D1027800231207B8
:1008500004D5702D06D009B1022311342246F0BC14
:1008600000F02EB901231034F8E770B504460D46A8
:1008700021461068FFF755FE024629462046BDE88E
:1008800070400023C6E7D21D22F00703D3E90023FE
:10089000C0E70368126843F0200303600823C361C4
:1008A0000023B7E7582600002DE9F05F894604468B
:1008B0004FF0000ADFF874B1FB44C0F820A02046D6
:1008C000E1688847002874D0252806D0D4E90121A2
:1008D0009047206A401C2062F1E700265F462046D0
:1008E000E16888472028054607DB312D05D27819B5
:1008F00010F8200C08B10643F1E7B00701D526F047
:100900000406C4F81CA00027C4F818A02A2D09D09A
:10091000284602F069FA38B304EB8708303DC8F87E
:10092000185019E059F8041B204604EB8702916126
:10093000E1688847012F054618D1E069002820DAD0
:1009400026F020061DE0D8F8180000EB800005EB2B
:1009500040003038C8F818002046E168884705464E
:1009600002F042FA0028EED1012F0AD02E2D08D134
:100970002046E16888477F1C0546022F46F0200686
:10098000C4DBA069002803DA404246F00106A061FA
:10099000F00701D026F010066C2D0BD0682D09D081
:1009A0004C2D39D06A2D35D0742D35D07A2D33D0D9
:1009B00016E038E0E1682F4620468847B8420546F1
:1009C00009D16C2F26D04FF48060E16806432046A1
:1009D0008847054604E06C2F1AD04FF48070064318
:1009E0000DB3A5F14100192802D8203546F4006660
:1009F0004A462946204626604E46FFF715FC80B140
:100A000001280BD0F61D26F0070000F1080956E773
:100A10004020E4E78020D8E70020D6E706F104096B
:100A20004DE7284652E7206A00F002B8E8250000AA
:100A300030BCBDE8C09F30B5B0F10A0271F10003CF
:100A40004FEA900E4EEA817EB0EB0E0061EB910111
:100A50004FEA101E4EEA017E10EB0E0041EB111121
:100A60004FEA102E4EEA016E10EB0E0041EB112101
:100A70004FEA104E4EEA014E10EB0E0041EB1141D1
:100A8000401841F100014FEAD00040EA41704FEABE
:100A9000D1014FEA810444EA907410EB800544EBE5
:100AA00001046D1944EB0404521BA3414FF00003F1
:100AB00048BF0A3200D530BD401C41F1000130BDB5
:100AC0002DE9F0470D4699469246044600F1240868
:100AD0000168880604D5E06921F01001216000E07A
:100AE0000120A84201DD471B00E00027A1697A1917
:100AF00002EB0900081AA0612078C00602D4204643
:100B0000FFF7DFFC002608E0D4E901211AF806000F
:100B10009047206A401C761C20624E45F4DB20780A
:100B2000C0060AD52046FFF7CCFC06E0D4E9012137
:100B300030209047206A401C2062381EA7F1010730
:100B4000F4DC07E0D4E9012118F805009047206A99
:100B5000401C2062281EA5F10105F3DC2046FFF7AA
:100B6000C6FC2078000602D50220BDE8F0870120EF
:100B7000FBE72DE9FF4F0C461E464FF0FF378BB0C9
:100B8000D2E90001DDF860800A908A46C1F30A5577
:100B900005B93D46002108464FF00000BAF1000FAC
:100BA00000F4400005DA00EB80004FF4400101EA58
:100BB00050004FEA9059B9F1010F00DDB9460A988B
:100BC00050EA4A000ED044F61050A5F2FF354543D6
:100BD0002F14B8F1000F1ED07542291E1EDDC9F179
:100BE00000021CE0B8F1010F4FF0000001D03021ED
:100BF00003E0F24305E02154401CB042FBDB3046E9
:100C00000022002121540B99C1F80880C1E900207D
:100C10000FB000F0BCB9BD1B6D1CDEE74A4600DA20
:100C2000694206A800F0F8FB06AB93E8070003ABA7
:100C300083E8070050460A9901F0F6FC8DE80700AA
:100C4000A0F500501F3800900398002D0ADD42F2F5
:100C50001F014A460844002303A90390684601F097
:100C60005FFF09E0A0F500504A461F38002303A9A2
:100C70000390684601F069FF8DE807000004000C4E
:100C800003D04FF0FF30410800E01046B8F1000FEC
:100C900003D00022009215461EE0751E05D4FFF712
:100CA000CAFE303262556D1EF9D5B34601220843A3
:100CB00002D000227F1C04E02078302801D10022DD
:100CC0007F1E002A099784D01DE0112D07DAFFF757
:100CD000B2FE303262556D1C50EA0102F5D1084374
:100CE00002D00098C8B10EE00021681E05E0235C28
:100CF000625C63542254401E491C8142F7DBAB46C0
:100D0000A81B401E0990002004F80B000B98099ABC
:100D1000C0F80880C0E9002B7AE711264FF00008E0
:100D200057E72DE9F04F88460446D21D22F007010F
:100D300091B0D1E90001CDE90A0102F03DF8024687
:100D40000B98C00F01D02D2007E02068810701D546
:100D50002B2002E0202101EAC000032A099001D0E3
:100D6000072A05DB03464146204600F015FB0BE150
:100D70002078800601D5E06900E00620B8F1650F13
:100D8000814606D0B8F1660F18D0B8F1670F70D160
:100D900031E00020B9F1110F009001DB112301E0D7
:100DA00009F101030AAA01A90CA8FFF7E2FEDDE997
:100DB0000C70002609F10105834647E001204B46EF
:100DC00000904FF000470AAA01A90CA8FFF7D1FE36
:100DD000DDE90DB00C995D46002610B909F101005E
:100DE0000D18B9EB050003D4C0F1FF3609F1010578
:100DF000A5EB09002BE0B9F1010F01DA4FF0010971
:100E00000020B9F1110F0090484601DD112300E0E8
:100E100003460AAA01A90CA8FFF7ABFEDDE90C7096
:100E20004D4600268346207800070AD4AB4500DAF9
:100E30005D4601A8012D04DD411911F8011C30297E
:100E400007D04F4502DA17F1040F04DA0120824679
:100E50000FE06D1EEEE7002F02DCED1B3E4403E0C9
:100E6000781CA84200DD7D1CB81B00F1010A4FF080
:100E700000472078000703D4AA4501DB4FF0FF3A72
:100E80000021B7F1004F0DF143088DF8431024D035
:100E900002202B23002F01DA7F422D230A21021E7C
:100EA000A0F1010000DC5FB197FBF1FC97FBF1F2D0
:100EB00001FB1C7C17460CF1300C08F801CDEEE765
:100EC000A8F1010003702188090501D5452100E042
:100ED0006521A0F1010800F8011C09980FA9A1EBF8
:100EE0000807FF1D00B10120411901EBEA70A1695B
:100EF0003844081A401EA0612078C00602D420465B
:100F0000FFF7DFFA099828B1D4E901219047206A58
:100F1000401C20622078C00622D52046FFF7D1FA77
:100F20001EE0002E04DBB34502DD01A8805D00E079
:100F30003020D4E901219047206A401C2062761CB1
:100F4000AAF101005FEA000A0AD100F021FAC068A4
:100F50000168405CD4E901219047206A401C20626E
:100F6000281EA5F10105DCDC07E0D4E9012118F811
:100F7000010B9047206A401C2062381EA7F1010730
:100F8000F3DC2046FFF7B3FA032011B041E630BC92
:100F9000BDE8C08F2DE9F04F04460D46D21D22F06A
:100FA000070089B0D0E900974846394601F004FFB0
:100FB0000246F80F01D02D2307E02068810701D5F4
:100FC0002B2302E0202101EAC0038DF820300BB171
:100FD000012000E00020032A824601D0072A04DB1A
:100FE0002946204600F0D8F93FE12078800601D458
:100FF0000D2500E0E569C7F30A560D2D49DA0021F9
:101000004FEA175B08464FF00000002F00F4400045
:1010100007DA00EB80004FF4400100EBD07001EAEA
:1010200060008115012901DD4FF0FF3100224FEAF8
:10103000850CBCF1180F06D31346ACF118004FF025
:101040008052C24003E04FF4801323FA0CF30CF1FA
:101050000C0CBCF1200F04D3ACF1200C09FA0CF0FD
:1010600001E007FA0CF000294FF0004801DD18B943
:101070000FE00ED140450CD319EB02095F4121B9B5
:10108000404502D19F4329EA0209BBEB175F00D01C
:10109000761C2088000502D57B48784402E07A4817
:1010A0007844193808AA302302F80A30037C0AF180
:1010B0000101002E0AF1020A53546A4602DC4FF085
:1010C000300101E04FF031014FF001088DF80010C0
:1010D00002D0A6F2FF3603E059EA470100D06B4E7A
:1010E000002D02DC2178090704D54FF002082E21DB
:1010F0008DF80110C44600210BE0C7F303433F0104
:10110000C35C491C6D1E02F80830052908F101086E
:1011100001DA002DF1DC00210CE000EB1973491C11
:101120001B786D1E082902F808304FEA091908F1EA
:10113000010801DA002DF0DC21688B0602D516E0EB
:10114000A8F10108E04505DD02EB080313F8013CB6
:10115000302BF5D0B8F1000F09DD02EB080313F8CE
:10116000013C2E2B03D1090701D4A8F10108002D61
:1011700005DD3E2102F808106D1E08F10108407CD3
:10118000002E02F8080008F1010804DA2D2076424A
:1011900002F8080002E02B2002F808000A214FF4B0
:1011A0007A70864208F101080BDB96FBF0F33033CE
:1011B00002F8083096FBF0F308F1010800FB136613
:1011C00001E0642E0CDB642096FBF0F3303302F870
:1011D000083096FBF0F308F1010800FB136601E00C
:1011E0000A2E06DB96FBF1F0303002F8080008F119
:1011F000010896FBF1F001FB1060303002F80800A6
:10120000A16908F1010808EB050202EB0A00081ABF
:10121000A0612078C00602D42046FFF752F9216A67
:1012200008AE01EB0A00206204E0D4E9012116F8BF
:10123000010B9047BAF1010AF7D22078C00602D517
:101240002046FFF73EF96E4609E016F8010B3E28EE
:101250000FD0D4E901219047206A401C2062B8F1E8
:101260000108F2D22046FFF742F909B0032000F04E
:101270000FB8206A2844206203E0D4E9012130201D
:1012800090476D1EEBD3F8E72A1E000002FCFFFF1B
:1012900030BCBDE8C08F10B5436913B1AFF3008017
:1012A00001E0FFF747F9012010BD127800F1240199
:1012B0000A7000224A700122EDE711684FF0FF32F8
:1012C000E9E710B5436913B1AFF3008001E0FFF720
:1012D000C9F9012010BD128800F124018284002286
:1012E000C2840122EDE711684FF0FF32E9E72DE9F2
:1012F000F04116460C46054600F042F8036893F8A4
:101300000101012807D0FF2C12D8185D80B10120FF
:101310002C70BDE8F081D3F807013246214603F274
:101320000713C7182846BC46BDE8F04100236047B4
:101330004FF0FF30EDE7754600F0EAF8AE460500E5
:101340006946534620F00700854618B020B5FFF7E0
:1013500001F8BDE820404FF000064FF000074FF0C5
:1013600000084FF0000BAC46ACE8C009ACE8C0097F
:10137000ACE8C009ACE8C00921F007018D46704710
:1013800010B500F005F8001D10BD00BF991A00004F
:1013900000487047280000202DE9F0411F46044610
:1013A00003260168072A01F4006004DB08B116A5D2
:1013B00005E016A503E008B115A500E015A521F08C
:1013C00010002060A069C01EA0610FB1401EA06186
:1013D0002046FFF776F84FB1D4E90121384690470F
:1013E000206A401C2062C01C206206E0206AFAE7E6
:1013F000D4E9012115F8010B9047761EF8D220465A
:10140000FFF775F8BDE8F0814E414E006E616E0049
:10141000494E4600696E66002DE9F0478146164642
:101420008AB0354878440DC88DE80D0032487844BC
:10143000801C03AC0DC884E80D0041F69B300844C5
:10144000372190FBF1F290FBF1F5A5F1800501FB4E
:1014500012041B3C02D56442012000E00020DFF8AA
:1014600098A080460027FA44AAF1BE0A0EE0E007E1
:101470000AD03246684607EB470101230AEB810197
:1014800001F063FB8DE8070064107F1C002CEED197
:10149000194F7F44AE3F19E0E80715D007EB041061
:1014A0000DF1180A90E80E008AE80E00C068F042BC
:1014B00001D1981908903246012306A903A801F02A
:1014C00044FB03AB83E807006D10641C002DE3D1DF
:1014D0004FF0010332466946B8F1000F03A802D06D
:1014E00001F01EFB01E001F030FBC9E90001C9F881
:1014F00008200AB0BDE8F087301B000010B5044694
:10150000AFF300802046BDE81040FEF7F2BE0000B9
:10151000004870470800002001491820ABBEFEE7D4
:10152000260002007047000080B540F27C41C2F204
:101530000001012008600E2000F0C2FE0020C4F26D
:1015400002000068800400280AD5FFE70421C4F2E5
:101550000201086840F40050086000F0A9FFFFE7AE
:101560000421C4F20201086840F48050086080BD84
:1015700080B540F28041C2F20001012008601120D4
:1015800000F09EFE0020C4F20200006880010028E6
:101590000AD5FFE70421C4F20201086840F0007098
:1015A000086000F085FFFFE70421C4F2020108682B
:1015B00040F08070086080BD80B586B005900491D1
:1015C00041F24801C4F20201086840F001000860DD
:1015D00000200390FFE70398B0F5FA6F05DAFFE704
:1015E000FFE7039801300390F5E70599086820F0BC
:1015F000010008600599086820F48040086005999A
:10160000086840F4405008600599086820F440706C
:1016100008600599086820F440600860059908682A
:1016200020F0400008600599086840F080000860DC
:101630000599086820F0200008600599086840F0C6
:10164000100008600599086820F0040008600599FA
:10165000086820F0080008600599086840F002005A
:101660000860049843F60001C4F20101884208D1E1
:10167000FFE7A821C4F20201086840F400500860A6
:1016800010E0049844F20041C4F20001884208D1FD
:10169000FFE7A821C4F20201086840F0007008606A
:1016A000FFE7FFE705984421C4F20201884213D105
:1016B000FFE70421C4F20201086840F4A830086082
:1016C0000E200290032100F043FE029800F010FE6D
:1016D000029800F0DDFD1AE005988021C4F20201B5
:1016E000884213D1FFE70421C4F20201086840F0E8
:1016F000A850086011200190032100F029FE0198F4
:1017000000F0F6FD019800F0C3FDFFE7FFE706B02B
:1017100080BD00007047000081B05220009041F26F
:101720005801C4F20201086840F40010086041F258
:101730008801C4F20201086820F44050086008687B
:1017400040F48050086041F23801C4F20201086898
:1017500040F400100860086820F40010086045F2AA
:101760000041C4F20001086820F001000860086828
:1017700020F480500860086820F4706008600868F1
:1017800040F080000860086820F40030086045F2EE
:101790000442C4F20002106820F400601060106877
:1017A00040F400401060106840F00070106045F296
:1017B0001042C4F2000200201060106840F0E040C7
:1017C0001060106840F410001060106840F4402071
:1017D0001060106840F41C501060106840F02E003B
:1017E000106045F20842C4F20002106840F4004064
:1017F0001060106820F400401060106820F48060D1
:101800001060106840F2FF3398431060009B10682E
:1018100018431060086840F00100086001B070478C
:1018200041F24C01C4F20201086840F00100086076
:10183000086840F0040008604FF09041086820F408
:1018400040600860086840F4806008600421C4F6C5
:101850000001086820F0200008600C21C4F6000197
:10186000086820F44060086040F60001C4F60001FA
:10187000086820F04060086040F60C01C4F60001E2
:10188000086820F0406008601421C4F60001086870
:1018900040F02000086070471421C4F60001086879
:1018A00080F020000860704741F24C01C4F2020150
:1018B000086840F00400086040F60001C4F600012A
:1018C000086820F0FF000860086840F055000860D4
:1018D00040F60401C4F60001086820F00F0008601B
:1018E00040F60C01C4F60001086820F0FF00086013
:1018F00040F61401C4F60001086820F00F000860EB
:1019000040F27040C2F20000027842F67070C0F6F9
:10191000000050F82220086810430860704700005B
:1019200041F24C01C4F20201086840F00300086073
:101930004FF09041086820F440700860086840F457
:10194000007008602021C4F60001086840F4A0205F
:10195000086040F20041C4F60001086820F47C6091
:101960000860086840F42860086040F22041C4F62E
:101970000001086845F20002C0F2550210430860F9
:101980000821C4F60001086840F440700860042192
:10199000C4F60001086820F0100008600C21C4F6AD
:1019A0000001086820F44070086040F20841C4F665
:1019B0000001086840F47C60086040F20441C4F60D
:1019C0000001086820F03800086040F20C41C4F6BD
:1019D0000001086820F47C600860704741F26001F3
:1019E000C4F20201086840F48050086041F24001EE
:1019F000C4F20201086840F480500860086820F4CE
:101A00008050086043F20001C4F20101086820F030
:101A100040000860086820F480600860086820F4CE
:101A200000400860086820F480400860086820F0E2
:101A30008000086043F20402C4F20102106840F41E
:101A400070601060106820F010001060086840F0AE
:101A500002000860086840F001000860086820F093
:101A600038000860086840F018000860086820F432
:101A700000500860086840F004000860086820F41E
:101A800000700860106840F008001060106840F0B6
:101A900004001060106820F480501060086840F066
:101AA000400008607047000081B0ADF80200FFE719
:101AB00043F20800C4F2010000688007002801D446
:101AC000FFE7F5E7BDF8020043F20C01C4F20101A3
:101AD0000860FFE743F20800C4F20100006800F06C
:101AE0008000012801D1FFE7F4E7FFE743F2080097
:101AF000C4F201000068C00708B9FFE7F6E743F247
:101B00000C00C4F201000068C0B201B070470000D0
:101B100080B500F005FD40F26C41C2F2000108689A
:101B2000013008600020C4F20200006840F28841E1
:101B3000C2F200010860A820C4F20200006840F26E
:101B40008441C2F20001086043F61C00C4F20100A7
:101B5000006840F28C41C2F20001086080BD0000C4
:101B60004EF21001CEF20001002008604EF2140384
:101B7000CEF2000342F20F721A604EF21802CEF259
:101B800000021060086840F002000860086840F039
:101B900001000860086820F0040008607047000039
:101BA00083B042F20001C4F20201086820F007008D
:101BB0000860086840F00200086041F20001C4F2C9
:101BC0000201086840F480700860FFE741F20000FD
:101BD000C4F2020000684005002801D4FFE7F5E7E1
:101BE0001020029041F20401C4F20201086820F0C2
:101BF000F8500860029A086840EA0260086041F202
:101C00000001C4F20201086820F080700860FFE75C
:101C100041F20000C4F2020000688001002801D5F2
:101C2000FFE7F5E741F20C01C4F2020101910868F7
:101C300020F003000860086840F0020008600868AF
:101C4000142262F30E2008600868012262F3061075
:101C50000860086820F0C0600860086840F0807084
:101C6000086041F20001C4F20201086840F080708F
:101C70000860FFE741F20000C4F202000068800142
:101C8000002801D4FFE7F5E741F20801C4F20201A0
:101C9000086820F003000860086840F0030008604E
:101CA000FFE741F20800C4F20200006800F00C00F7
:101CB0000C2801D0FFE7F4E741F20801C4F2020169
:101CC000086820F0F0000860086820F4E060086010
:101CD000086820F46050086041F20001C4F202017B
:101CE000086820F080600860FFE741F20000C4F25D
:101CF000020000684001002801D5FFE7F5E741F246
:101D00001001C4F202010091086820F4FE4008604E
:101D1000086840F4C0500860086840F4003008606B
:101D2000086840F48030086041F20001C4F202010A
:101D3000086840F080600860FFE741F20000C4F2EC
:101D4000020000684001002801D4FFE7F5E741F2F6
:101D50008801C4F20201086820F44000086041F2E2
:101D60006001C4F20201086840F40010086003B08A
:101D70007047000041F24C01C4F20201086840F0D3
:101D80000200086040F20041C4F60001086820F437
:101D900070400860086840F400500860086840F42B
:101DA0000040086040F20841C4F60001086840F4B1
:101DB00040500860086840F44040086040F220410C
:101DC000C4F60001086840F0E0600860086840F070
:101DD000E040086040F20C41C4F60001086820F4BD
:101DE00070400860086840F480500860086840F45B
:101DF000804008607047000041F26001C4F20201B7
:101E0000086840F48040086041F28801C4F2020191
:101E1000086840F0010008607047000041F24C0182
:101E2000C4F20201086840F0010008604FF09041E0
:101E3000086820F0F0000860086840F020000860A2
:101E4000086840F0800008600821C4F600010868B6
:101E500040F030000860086840F0C00008602021B1
:101E6000C4F60001086840F4E0600860086840F4C7
:101E7000E04008600C21C4F60001086820F0F00082
:101E80000860086840F010000860086840F04000F2
:101E90000860704741F25801C4F20201086840F43A
:101EA0000030086041F28801C4F20201086840F085
:101EB000040008607047000080B584B00390029170
:101EC000039842F6C071C0F60001FEF7B9FA90B16E
:101ED000FFE7039842F6A571C0F60001FEF7B0FADD
:101EE00048B1FFE7039842F6A971C0F60001FEF77A
:101EF000A7FA90B9FFE7012000F05EFB40F268000E
:101F0000C2F20000019042F6AD71C0F60001FEF78A
:101F10003DFA019800F032F82DE0039842F6BF71C7
:101F2000C0F60001FEF78CFA90B1FFE7039842F685
:101F3000A271C0F60001FEF783FA48B1FFE70398EB
:101F400042F6A871C0F60001FEF77AFA90B9FFE7F1
:101F5000002000F031FB40F26800C2F20000009067
:101F600042F6B871C0F60001FEF710FA009800F0D2
:101F700005F8FFE7FFE704B080BD000080B584B03E
:101F8000039040F27840C2F2000000684068C0BB95
:101F9000FFE740F27840C2F2000002900168086852
:101FA00020F00100086040F20000C2F2000000686A
:101FB0000399FEF701FA0398FEF722FA0146029808
:101FC0000268516000684421C4F20201884201D1D4
:101FD000FFE70CE040F27840C2F200000068802188
:101FE000C4F20201884201D1FFE7FFE7FFE740F2B8
:101FF0007840C2F200000168086840F00100086003
:1020000017E040F20400C2F20000006840F26A41AA
:10201000C2F200010191097808440399FEF7B6F96C
:102020000398FEF7EDF9019902460878104408700C
:10203000FFE704B080BD000080B5252000F040F926
:1020400040F29041C2F200010120086043F61C00FA
:10205000C4F2010000680007002811D5FFE743F62D
:102060002001C4F20101086840F00800086043F64E
:102070002400C4F201000088C0B200F0A9FAFFE712
:1020800043F61C00C4F2010000688006002809D550
:10209000FFE743F62400C4F201000088C0B200F05C
:1020A00097FA14E043F61C00C4F2010000684006F1
:1020B00000280BD5FFE743F62001C4F201010868B0
:1020C00040F04000086000F0F3F9FFE7FFE780BD53
:1020D00080B5262000F0F4F840F29441C2F20001ED
:1020E0000120086044F21C40C4F200000068800631
:1020F000002809D5FFE744F22440C4F2000000881C
:10210000C0B200F065FA14E044F21C40C4F20000D2
:102110000068400600280BD5FFE744F22041C4F2D6
:102120000001086840F04000086000F0C1F9FFE7D6
:10213000FFE780BD80B584B003900399086820F064
:1021400001000860039843F60001C4F201018842CF
:102150000DD1FFE740F27841C2F200014420C4F201
:1021600002000860FFF748FEFFF704FE15E0039841
:1021700044F20041C4F2000188420DD1FFE740F271
:102180007841C2F200018020C4F202000860FFF72B
:1021900081FEFFF743FEFFE7FFE740F27840C2F21F
:1021A0000000029000680399FFF706FA029940F2D6
:1021B0000000C2F2000000680A68D060039828306E
:1021C000096888600399086820F010200860039966
:1021D000086820F4004008600399486820F44050E3
:1021E00048600399C8680020C860039A42F28D01D4
:1021F000D160039A916841F080019160039A11685F
:1022000041F00C011160039A4FF0A0515161039A03
:10221000116A41F040011162039908850399086829
:1022200040F020000860039843F60001C4F2010169
:1022300088420CD1FFE725200190002100F0AAF888
:10224000019800F06DF8019800F03AF814E0039856
:1022500044F20041C4F2000188420CD1FFE726207D
:102260000090002100F096F8009800F059F80098CE
:1022700000F026F8FFE7FFE70399086A40F0400006
:1022800008620399086840F00100086004B080BD4E
:1022900081B08DF803009DF9030000280ED4FFE7FC
:1022A0009DF9031001F01F02012090404A094EF2EF
:1022B0008021CEF2000141F82200FFE701B0704713
:1022C00081B08DF803009DF9030000280ED4FFE7CC
:1022D0009DF9031001F01F02012090404A094EF2BF
:1022E0008021CEF2000141F82200FFE701B07047E3
:1022F00081B08DF803009DF9030000280ED4FFE79C
:102300009DF9031001F01F02012090404A094EF28E
:102310000011CEF2000141F82200FFE701B0704742
:1023200081B08DF803009DF9030000280ED4FFE76B
:102330009DF9031001F01F02012090404A094EF25E
:102340000011CEF2000141F82200FFE701B0704712
:1023500082B08DF8070000919DF9070000280AD48B
:10236000FFE7009800019DF907104EF20042CEF2FF
:10237000000288540BE0009800019DF8071001F05E
:102380000F014EF61452CEF200028854FFE702B05D
:102390007047000082B08DF8070000919DF907009A
:1023A00000280AD4FFE7009800019DF907104EF2BB
:1023B0000042CEF2000288540BE0009800019DF824
:1023C000071001F00F014EF61452CEF200028854AD
:1023D000FFE702B07047000080B582B08DF80700BB
:1023E0008DF806109DF8070000F03F019DF80600EB
:1023F00040EA0120ADF80400BDF80400FFF754FBEB
:1024000002B080BD81B0009040F26C41C2F2000188
:1024100000200860FFE740F26C40C2F20000006854
:102420000099884201D2FFE7F5E701B0704700004C
:1024300080B531200821FFF7CFFF2C200A21FFF7BC
:10244000CBFF2D203B21FFF7C7FF80BD80B584B0B7
:1024500000200390FFF7A4FBFFF726FAFFF780FBAD
:1024600043F60000C4F20100FFF764FEFFF7D8F95D
:10247000FFF756FAFFF7B2FAFFF7DAFFFFF74AF96C
:10248000FFF74AF940F26800C2F20000019042F6FC
:102490009071C0F60001FDF779FF0198FFF76EFD1E
:1024A000FFE7FFF7F9F94FF47A70FFF7ABFFF8E7B2
:1024B00040F27840C2F200000168086820F0010094
:1024C000086040F26A40C2F200000078012825DB73
:1024D000FFE740F20003C2F20003196840F27440C3
:1024E000C2F20000016040F20401C2F200010A6879
:1024F0001A600068086040F26A41C2F200010A787E
:1025000040F27840C2F2000003685A600268106826
:1025100040F00100106000200870FFE770470000E5
:1025200040F26830C2F200000078C0B1FFE740F22C
:102530007040C2F200000078072807D1FFE740F2A0
:102540007041C2F200010020087007E040F27041C3
:10255000C2F20001087801300870FFE716E040F28F
:102560007040C2F20000007838B9FFE740F27041D5
:10257000C2F200010720087007E040F27041C2F289
:102580000001087801380870FFE7FFE740F6140102
:10259000C4F6000108680020086040F27040C2F2F2
:1025A0000000027842F67070C0F6000050F8222059
:1025B000086810430860704781B08DF803009DF8EB
:1025C000030040F26831C2F20001087001B07047A8
:1025D00080B584B08DF80F009DF80F0040F269338C
:1025E000C2F200031A78511C197040F26A31C2F22B
:1025F000000188549DF80F000A2813D1FFE740F22C
:102600006930C2F200000190017840F26A30C2F2F3
:1026100000000290FFF750FC019A02990020107010
:102620000870FFE704B080BD5FEA400C08BF91F07E
:10263000000F4FEA8C234FEAC12243EA51514FEA7F
:102640001C5018BF00F5F0404FEA300018BF41F0B1
:1026500000415FEA6C5C00F02980BCF1FF3F08BFDD
:1026600040F080407047130C06BF12044FF0100C6E
:102670004FF0000C130E04BF12020CF1080C130FE4
:1026800004BF12010CF1040C930F04BF92000CF173
:10269000020CD30F04BF52000CF1010C11464FF095
:1026A0000002A0F11F00A0EB0C00704711F0004FDA
:1026B00008BF704731F000413FF4D5AF0B0C06BFA7
:1026C00009044FF0100C4FF0000C0B0E04BF090270
:1026D0000CF1080C0B0F04BF09010CF1040C8B0F5B
:1026E00004BF89000CF1020CCB0F04BF49000CF1B0
:1026F000010CCCF1200322FA03F341EA030102FAB0
:102700000CF2A0EB0C0000F10100704723F07F47B2
:1027100020F07F4C80EA030000F00040ACEB0703A0
:1027200003F57C5303F1FF032DE9804909B44FEA17
:10273000144324EA03484FEA154B25EA0B4E0FF2E7
:10274000042606EB13273E7803FB0667C7F5000750
:1027500007FB06F64FEAD64606F102064FEA543763
:1027600007FB066CCCF1005C4FEA1C472CEA074CD7
:102770000CFB06F507FB06F404EB15464FEA96162C
:1027800049085FEA320234BF00204FF000404FEAB0
:10279000D13706FB07FC4FEA1C4C0CFB0BF7D21B96
:1027A00003FB0CF761EB07010CFB0EF7B0EB0740E6
:1027B00072EB17420CFB08F734BFA2EB0742B2EBF7
:1027C000074261EB17414FEA0C444FEA910706FBC1
:1027D00007FC4FEA1C4C0CFB0BF7B0EBC74072EB4D
:1027E000573203FB0CF734BFA2EBC742B2EBC74230
:1027F00061EB57310CFB0EF7B0EBC70072EB577271
:102800000CFB08F734BFA2EBC702B2EBC70261EBC7
:1028100057714FEA816141EA92114FEA826242EABE
:1028200090124FEA806004EBCC04039F4FEAD1374B
:1028300006FB07FC4FEA1C4C0CFB0BF7D21B03FBFF
:102840000CF761EB07010CFB0EF7B0EB074072EBE6
:1028500017420CFB08F734BFA2EB0742B2EB07426A
:1028600061EB17414FEA8C5504EB9C244FEA91072A
:1028700006FB07FC4FEA1C4C0CFB0BF7B0EBC74008
:1028800072EB573203FB0CF734BFA2EBC742B2EB3B
:10289000C74261EB57310CFB0EF7B0EBC70072EB90
:1028A00057720CFB08F734BFA2EBC702B2EBC702AA
:1028B00061EB57714FEA816141EA92114FEA8262FE
:1028C00042EA90124FEA806015EB4C2544F1000477
:1028D0004FEAD13706FB07FC4FEA1C4C0CFB0BF709
:1028E000D21B03FB0CF761EB07010CFB0EF7B0EBFF
:1028F000074072EB17420CFB08F734BFA2EB07420C
:10290000B2EB074261EB17414FEA813141EA924154
:102910004FEA823242EA90424FEA80304FEA0C7628
:1029200015EB1C1544F1000448EA03434EEA0B483A
:102930004FF0000EB2EB080C71EB030724BF6246A8
:1029400039464EEB0E0E4FF0000B00185241494134
:102950004BEB0B0BB2EB080C71EB03077BF1000B9D
:1029600024BF624639464EEB0E0E4FF0000B0018A6
:10297000524149414BEB0B0BB2EB080C71EB0307D7
:102980007BF1000B24BF624639464EEB0E0E51EA36
:10299000020718BF46F0010616EB0E7655F100024D
:1029A00054F1000103D5BDE88901BDE80088BDE808
:1029B0008901BDE80048B619524141EB0101A3F17C
:1029C0000103704780807F7E7D7C7B7A7978777683
:1029D00076757473727171706F6E6E6D6C6C6B6AFC
:1029E0006A6968686766666564646363626161609A
:1029F000605F5F5E5E5D5D5C5C5B5B5A5A59595817
:102A00005857575656555555545453535252525180
:102A1000515050504F4F4F4E4E4D4D4D4C4C4C4BD6
:102A20004B4B4A4A4A49494948484847474747461D
:102A30004646454545444444444343434342424259
:102A4000424141419C46002B30D477002BD04FEAC5
:102A500037071CB503B44FF010004FF01001BAF166
:102A6000000F06D0BCF1000FDCBF40F0080040F0C2
:102A700008014FF000000FBCBDE810400BF1010B46
:102A8000BBF1010F08BF5FEA170722BF12F1010275
:102A900011F101014FF0004143F1000300F000404B
:102AA00043EA00007047F9D35708D0E746EA0646E4
:102AB0004FEA164613F1400F1FDD13F1200FDFBF61
:102AC00016430A46002120335B42BED0C3F12007E3
:102AD00046EA06464FEA164602FA07F746EA0706AE
:102AE00022FA03F2C3F1200701FA07F742EA0702CC
:102AF00021FA03F14FF00003A7E746EA020646EA8F
:102B000006464FEA164646EA0106BCBF46EA0646B6
:102B1000360C4FF000034FF000024FF0000194E735
:102B20002DE9804C70B49A46934691E8380007C866
:102B300031EA400C48BF34EA430C03D5FFF7E6FD09
:102B4000FFF780FFF0BCBDE8008C2DE9804C70B42D
:102B50009A46934691E8380007C810F0804F08BFA6
:102B600013F0804F03D100F005F8FFF76BFFF0BCC6
:102B7000BDE8008C20F07F4723F07F4C80EA030003
:102B800000F0004007EB0C03A3F57C53A3F1FE0318
:102B900092F0000F00F0B38095F0000F00F0778006
:102BA0002DE901494FEA114021EA00484FEA144655
:102BB00024EA064700FB06FC08FB06F607FB08F8BC
:102BC00018EB06484CEB164C00FB07F718EB0748D0
:102BD0004CEB17404FEA124B22EA0B4E4FEA1546D8
:102BE00025EA06470BFB06FC0EFB06F607FB0EFE6E
:102BF0001EEB064E4CEB164C0BFB07F71EEB074E7D
:102C00004CEB174B18EB0B0840F1000018EB0E0BC8
:102C100058EB000840F100008F1A4FF000014FF010
:102C200000063CBFC943661B14BFB5EB040C002172
:102C30003CBFC943F61B4FEA174427EA04454FEA55
:102C40001C472CEA074C04FB076205FB07F70CFB4B
:102C500005F616EB074642EB174204FB0CFC16EB9D
:102C60000C4642EB1C421BEB060658EB02024141AC
:102C70004EEA8E0E46EA9E0601D5BDE80189B619D8
:102C8000524141EB0101A3F10103BDE801894FEA83
:102C9000144524EA05464FEA114721EA074C05FB93
:102CA00007F406FB07F70CFB06F111EB074144EBB9
:102CB000174405FB0CFC11EB0C4144EB1C444FEAA0
:102CC000124722EA074C05FB07F206FB07F70CFB4D
:102CD00006F616EB074642EB174205FB0CFC16EB1B
:102CE0000C4642EB1C456A1854F1000148BF70477E
:102CF000B619524141EB0101A3F10103704795F070
:102D0000000F37D04FEA114221EA02464FEA14473A
:102D100024EA074C02FB07F106FB07F70CFB06F45D
:102D200014EB074441EB174102FB0CFC14EB0C4481
:102D300041EB1C414FEA154725EA074C02FB07F51A
:102D400006FB07F70CFB06F616EB074645EB1745A7
:102D500002FB0CFC16EB0C4645EB1C42121951F120
:102D6000000148BF7047B619524141EB0101A3F180
:102D7000010370474FEA144524EA05464FEA11471C
:102D800021EA074C05FB07F106FB07F70CFB06F2EF
:102D900012EB074241EB174105FB0CFC12EB0C4216
:102DA00051EB1C414FF0000648BF7047921841EBB1
:102DB0000101A3F10103704703B401984100009899
:102DC00050EAC12018BF04204A0D18BF40F001008E
:102DD00040F2FF72B2EB515F08BF40F002000128E1
:102DE00008BF052002B0704730380A2801D2012000
:102DF000704700207047000010B500290AD00878FD
:102E0000002807D005487844FDF71AFB002801D0B8
:102E1000002010BD0248784410BD0000DE01000013
:102E2000D601000010B500290AD00878002807D084
:102E300005487844FDF704FB002801D0002010BDB0
:102E40000248784410BD0000CE010000C601000019
:102E5000F1EE100A4FF6FF71C0F2C03120EA010016
:102E600040F04070E1EE100A7047FDF75ABFFEF7E0
:102E700091B8000000000000000000003031323343
:102E8000343536373839414243444546403058009E
:102E900030313233343536373839616263646566D0
:102EA000403078000400000800000000000000022C
:102EB0000001000010303132333435363738396193
:102EC000626364656678700030313233343536378A
:102ED0003839414243444546585000000240000002
:102EE000000000A00000000005400000000000C835
:102EF000000000000C4000000000409C00000000AA
:102F0000194000000020BCBE00000000344000005A
:102F1000BFC91B8E00000004B5400000504BCFD04D
:102F20006607E2CF010000006C4100003E8251AA1A
:102F3000DFEEA73401000000D9420000DCB5A0E2BA
:102F40003A301F97FFFFFFFFB4450000FD25A0C8E2
:102F5000E9A3C14FFFFFFFFFFF3F0000000000801B
:102F600000000000FF3F00000000008000000000A3
:102F70000900000001000000030000000200000042
:102F800006000000040000000C0000000800000023
:102F900050726F6772616D205374617274732E0D7D
:102FA0000A00300A00310A004343570A006469727C
:102FB0002069732063770A00646972206973206353
:102FC00063770A00103100080000002008000000AC
:102FD000EC0100081831000808000020900A0000E9
:102FE0000C0200081C00000043000000F8FFFFFF77
:102FF0000C0000000E0000000F0000002E0000007A
:103000001001000043000000F8FFFFFF00404040B7
:1030100040404040404041414141414040404040AB
:103020004040404040404040404040404005020257
:103030000202020202020202020202020220202016
:103040002020202020202002020202020202909072
:103050009090909010101010101010101010101070
:1030600010101010101010100202020202028888C4
:1030700088888888080808080808080808080808D0
:1030800008080808080808080202020240000000B8
:103090000000000000000000000000000000000030
:1030A0000000000000000000000000000000000020
:1030B0000000000000000000000000000000000010
:1030C0000000000000000000000000000000000000
:1030D00000000000000000000000000000000000F0
:1030E00000000000000000000000000000000000E0
:1030F00000000000000000000000000000000000D0
:1031000000000000000000000000000000000000BF
:083110006801002068020020A4
:040000050800018965
:00000001FF
